{
  "_format": "hh-sol-artifact-1",
  "contractName": "TruthRecord",
  "sourceName": "contracts/TruthRecord.sol",
  "abi": [
    {
      "anonymous": false,
      "inputs": [
        {
          "indexed": true,
          "internalType": "address",
          "name": "caller",
          "type": "address"
        },
        {
          "indexed": false,
          "internalType": "string",
          "name": "headline",
          "type": "string"
        },
        {
          "indexed": false,
          "internalType": "bool",
          "name": "verdict",
          "type": "bool"
        },
        {
          "indexed": false,
          "internalType": "uint256",
          "name": "timestamp",
          "type": "uint256"
        }
      ],
      "name": "RecordAdded",
      "type": "event"
    },
    {
      "inputs": [
        {
          "internalType": "string",
          "name": "headline",
          "type": "string"
        },
        {
          "internalType": "bool",
          "name": "verdict",
          "type": "bool"
        },
        {
          "internalType": "uint256",
          "name": "timestamp",
          "type": "uint256"
        }
      ],
      "name": "addRecord",
      "outputs": [],
      "stateMutability": "nonpayable",
      "type": "function"
    },
    {
      "inputs": [],
      "name": "getAllRecords",
      "outputs": [
        {
          "components": [
            {
              "internalType": "string",
              "name": "headline",
              "type": "string"
            },
            {
              "internalType": "bool",
              "name": "verdict",
              "type": "bool"
            },
            {
              "internalType": "uint256",
              "name": "timestamp",
              "type": "uint256"
            }
          ],
          "internalType": "struct TruthRecord.Record[]",
          "name": "",
          "type": "tuple[]"
        }
      ],
      "stateMutability": "view",
      "type": "function"
    },
    {
      "inputs": [],
      "name": "getCount",
      "outputs": [
        {
          "internalType": "uint256",
          "name": "",
          "type": "uint256"
        }
      ],
      "stateMutability": "view",
      "type": "function"
    }
  ],
  "bytecode": "0x608060405234801561001057600080fd5b50610a24806100206000396000f3fe608060405234801561001057600080fd5b50600436106100415760003560e01c8063550822ee14610046578063a7f9fe7214610062578063a87d942c14610080575b600080fd5b610060600480360381019061005b91906103c5565b61009e565b005b61006a6101c6565b60405161007791906105f9565b60405180910390f35b6100886102dc565b604051610095919061062a565b60405180910390f35b6000604051806060016040528086868080601f016020809104026020016040519081016040528093929190818152602001838380828437600081840152601f19601f8201169050808301925050505050505081526020018415158152602001838152509080600181540180825580915050600190039060005260206000209060030201600090919091909150600082015181600001908161013f9190610880565b5060208201518160010160006101000a81548160ff0219169083151502179055506040820151816002015550503373ffffffffffffffffffffffffffffffffffffffff167febf8dbe094a4be25a952cf77bc8e0c3fd015174225bd26f66d60eca4def5afab858585856040516101b894939291906109ae565b60405180910390a250505050565b60606000805480602002602001604051908101604052809291908181526020016000905b828210156102d3578382906000526020600020906003020160405180606001604052908160008201805461021d906106a3565b80601f0160208091040260200160405190810160405280929190818152602001828054610249906106a3565b80156102965780601f1061026b57610100808354040283529160200191610296565b820191906000526020600020905b81548152906001019060200180831161027957829003601f168201915b505050505081526020016001820160009054906101000a900460ff16151515158152602001600282015481525050815260200190600101906101ea565b50505050905090565b60008080549050905090565b600080fd5b600080fd5b600080fd5b600080fd5b600080fd5b60008083601f840112610317576103166102f2565b5b8235905067ffffffffffffffff811115610334576103336102f7565b5b6020830191508360018202830111156103505761034f6102fc565b5b9250929050565b60008115159050919050565b61036c81610357565b811461037757600080fd5b50565b60008135905061038981610363565b92915050565b6000819050919050565b6103a28161038f565b81146103ad57600080fd5b50565b6000813590506103bf81610399565b92915050565b600080600080606085870312156103df576103de6102e8565b5b600085013567ffffffffffffffff8111156103fd576103fc6102ed565b5b61040987828801610301565b9450945050602061041c8782880161037a565b925050604061042d878288016103b0565b91505092959194509250565b600081519050919050565b600082825260208201905092915050565b6000819050602082019050919050565b600081519050919050565b600082825260208201905092915050565b60005b8381101561049f578082015181840152602081019050610484565b60008484015250505050565b6000601f19601f8301169050919050565b60006104c782610465565b6104d18185610470565b93506104e1818560208601610481565b6104ea816104ab565b840191505092915050565b6104fe81610357565b82525050565b61050d8161038f565b82525050565b6000606083016000830151848203600086015261053082826104bc565b915050602083015161054560208601826104f5565b5060408301516105586040860182610504565b508091505092915050565b600061056f8383610513565b905092915050565b6000602082019050919050565b600061058f82610439565b6105998185610444565b9350836020820285016105ab85610455565b8060005b858110156105e757848403895281516105c88582610563565b94506105d383610577565b925060208a019950506001810190506105af565b50829750879550505050505092915050565b600060208201905081810360008301526106138184610584565b905092915050565b6106248161038f565b82525050565b600060208201905061063f600083018461061b565b92915050565b7f4e487b7100000000000000000000000000000000000000000000000000000000600052604160045260246000fd5b7f4e487b7100000000000000000000000000000000000000000000000000000000600052602260045260246000fd5b600060028204905060018216806106bb57607f821691505b6020821081036106ce576106cd610674565b5b50919050565b60008190508160005260206000209050919050565b60006020601f8301049050919050565b600082821b905092915050565b6000600883026107367fffffffffffffffffffffffffffffffffffffffffffffffffffffffffffffffff826106f9565b61074086836106f9565b95508019841693508086168417925050509392505050565b6000819050919050565b600061077d6107786107738461038f565b610758565b61038f565b9050919050565b6000819050919050565b61079783610762565b6107ab6107a382610784565b848454610706565b825550505050565b600090565b6107c06107b3565b6107cb81848461078e565b505050565b5b818110156107ef576107e46000826107b8565b6001810190506107d1565b5050565b601f82111561083457610805816106d4565b61080e846106e9565b8101602085101561081d578190505b610831610829856106e9565b8301826107d0565b50505b505050565b600082821c905092915050565b600061085760001984600802610839565b1980831691505092915050565b60006108708383610846565b9150826002028217905092915050565b61088982610465565b67ffffffffffffffff8111156108a2576108a1610645565b5b6108ac82546106a3565b6108b78282856107f3565b600060209050601f8311600181146108ea57600084156108d8578287015190505b6108e28582610864565b86555061094a565b601f1984166108f8866106d4565b60005b82811015610920578489015182556001820191506020850194506020810190506108fb565b8683101561093d5784890151610939601f891682610846565b8355505b6001600288020188555050505b505050505050565b600082825260208201905092915050565b82818337600083830152505050565b600061097e8385610952565b935061098b838584610963565b610994836104ab565b840190509392505050565b6109a881610357565b82525050565b600060608201905081810360008301526109c9818688610972565b90506109d8602083018561099f565b6109e5604083018461061b565b9594505050505056fea26469706673582212209e31cd169a5d717c9ded7eee0fd098063574532d2af9c11affa2759d3d07947064736f6c63430008130033",
  "linkReferences": {},
  "deployedLinkReferences": {}
}